{
  "_format": "hh-sol-artifact-1",
  "contractName": "AccountFactory",
  "sourceName": "contracts/Account.sol",
  "abi": [
    {
      "inputs": [
        {
          "internalType": "address",
          "name": "owner",
          "type": "address"
        }
      ],
      "name": "createAccount",
      "outputs": [
        {
          "internalType": "address",
          "name": "",
          "type": "address"
        }
      ],
      "stateMutability": "nonpayable",
      "type": "function"
    }
  ],
  "bytecode": "0x608060405234801561001057600080fd5b50610da6806100206000396000f3fe608060405234801561001057600080fd5b506004361061002b5760003560e01c80639859387b14610030575b600080fd5b61004361003e366004610226565b61005f565b6040516001600160a01b03909116815260200160405180910390f35b6040516000906001600160a01b03831690829061007e60208201610219565b601f1982820381018352601f9091011660408181526001600160a01b038716602083015291925060009183910160408051601f19818403018152908290526100c99291602001610286565b604051602081830303815290604052905060006100ed84838051906020012061011f565b90506001600160a01b0381163b801561010a575095945050505050565b6101148584610135565b979650505050505050565b600061012c8383306101ef565b90505b92915050565b6000815160000361018d5760405162461bcd60e51b815260206004820181905260248201527f437265617465323a2062797465636f6465206c656e677468206973207a65726f60448201526064015b60405180910390fd5b828251602084016000f590506001600160a01b03811661012f5760405162461bcd60e51b815260206004820152601960248201527f437265617465323a204661696c6564206f6e206465706c6f79000000000000006044820152606401610184565b6000604051836040820152846020820152828152600b8101905060ff815360559020949350505050565b610acd806102a483390190565b60006020828403121561023857600080fd5b81356001600160a01b038116811461024f57600080fd5b9392505050565b6000815160005b81811015610277576020818501810151868301520161025d565b50600093019283525090919050565b600061029b6102958386610256565b84610256565b94935050505056fe608060405234801561001057600080fd5b50604051610acd380380610acd83398101604081905261002f91610054565b600180546001600160a01b0319166001600160a01b0392909216919091179055610084565b60006020828403121561006657600080fd5b81516001600160a01b038116811461007d57600080fd5b9392505050565b610a3a806100936000396000f3fe608060405234801561001057600080fd5b50600436106100885760003560e01c8063614619541161005b57806361461954146100e45780638da5cb5b146100ec578063919840ad14610117578063b19f4ce31461015957600080fd5b806306661abd1461008d578063165c4a16146100a95780633a871cdd146100bc57806347e1da2a146100cf575b600080fd5b61009660005481565b6040519081526020015b60405180910390f35b6100966100b7366004610699565b61016c565b6100966100ca3660046106bb565b610181565b6100e26100dd366004610754565b61022c565b005b6100e26103c2565b6001546100ff906001600160a01b031681565b6040516001600160a01b0390911681526020016100a0565b60408051808201909152600c81527f486f772061726520796f753f000000000000000000000000000000000000000060208201525b6040516100a091906107ee565b61014c61016736600461083c565b6103d8565b600061017882846108c4565b90505b92915050565b7f19457468657265756d205369676e6564204d6573736167653a0a3332000000006000908152601c839052603c812081906101fe906101c46101408801886108db565b8080601f01602080910402602001604051908101604052809392919081815260200183838082843760009201919091525061040492505050565b6001549091506001600160a01b0380831691161461021d576001610220565b60005b60ff1695945050505050565b848114801561023a57508483145b61028b5760405162461bcd60e51b815260206004820152601160248201527f4d69736d61746368656420696e7075747300000000000000000000000000000060448201526064015b60405180910390fd5b60005b858110156103b95760008787838181106102aa576102aa610922565b90506020020160208101906102bf9190610938565b6001600160a01b03168686848181106102da576102da610922565b905060200201358585858181106102f3576102f3610922565b905060200281019061030591906108db565b604051610313929190610968565b60006040518083038185875af1925050503d8060008114610350576040519150601f19603f3d011682016040523d82523d6000602084013e610355565b606091505b50509050806103a65760405162461bcd60e51b815260206004820152601160248201527f42617463682063616c6c206661696c65640000000000000000000000000000006044820152606401610282565b50806103b181610978565b91505061028e565b50505050505050565b6000805490806103d183610978565b9190505550565b606082826040516020016103ed929190610991565b604051602081830303815290604052905092915050565b60008060006104138585610428565b915091506104208161046d565b509392505050565b600080825160410361045e5760208301516040840151606085015160001a610452878285856105d5565b94509450505050610466565b506000905060025b9250929050565b6000816004811115610481576104816109ee565b036104895750565b600181600481111561049d5761049d6109ee565b036104ea5760405162461bcd60e51b815260206004820152601860248201527f45434453413a20696e76616c6964207369676e617475726500000000000000006044820152606401610282565b60028160048111156104fe576104fe6109ee565b0361054b5760405162461bcd60e51b815260206004820152601f60248201527f45434453413a20696e76616c6964207369676e6174757265206c656e677468006044820152606401610282565b600381600481111561055f5761055f6109ee565b036105d25760405162461bcd60e51b815260206004820152602260248201527f45434453413a20696e76616c6964207369676e6174757265202773272076616c60448201527f75650000000000000000000000000000000000000000000000000000000000006064820152608401610282565b50565b6000807f7fffffffffffffffffffffffffffffff5d576e7357a4501ddfe92f46681b20a083111561060c5750600090506003610690565b6040805160008082526020820180845289905260ff881692820192909252606081018690526080810185905260019060a0016020604051602081039080840390855afa158015610660573d6000803e3d6000fd5b5050604051601f1901519150506001600160a01b03811661068957600060019250925050610690565b9150600090505b94509492505050565b600080604083850312156106ac57600080fd5b50508035926020909101359150565b6000806000606084860312156106d057600080fd5b833567ffffffffffffffff8111156106e757600080fd5b840161016081870312156106fa57600080fd5b95602085013595506040909401359392505050565b60008083601f84011261072157600080fd5b50813567ffffffffffffffff81111561073957600080fd5b6020830191508360208260051b850101111561046657600080fd5b6000806000806000806060878903121561076d57600080fd5b863567ffffffffffffffff8082111561078557600080fd5b6107918a838b0161070f565b909850965060208901359150808211156107aa57600080fd5b6107b68a838b0161070f565b909650945060408901359150808211156107cf57600080fd5b506107dc89828a0161070f565b979a9699509497509295939492505050565b600060208083528351808285015260005b8181101561081b578581018301518582016040015282016107ff565b506000604082860101526040601f19601f8301168501019250505092915050565b6000806020838503121561084f57600080fd5b823567ffffffffffffffff8082111561086757600080fd5b818501915085601f83011261087b57600080fd5b81358181111561088a57600080fd5b86602082850101111561089c57600080fd5b60209290920196919550909350505050565b634e487b7160e01b600052601160045260246000fd5b808202811582820484141761017b5761017b6108ae565b6000808335601e198436030181126108f257600080fd5b83018035915067ffffffffffffffff82111561090d57600080fd5b60200191503681900382131561046657600080fd5b634e487b7160e01b600052603260045260246000fd5b60006020828403121561094a57600080fd5b81356001600160a01b038116811461096157600080fd5b9392505050565b8183823760009101908152919050565b60006001820161098a5761098a6108ae565b5060010190565b7f48656c6c6f2000000000000000000000000000000000000000000000000000008152818360068301377f212121210000000000000000000000000000000000000000000000000000000091016006810191909152600a01919050565b634e487b7160e01b600052602160045260246000fdfea26469706673582212201b42fdf1cf13fef3bac66e9b7f00e32de01b520b57625fb1aaeaa2ca7628eac264736f6c63430008140033a26469706673582212209bf62adeefacf9c0daa48839b37f57fae660976e83849ac2d7ae163d9bde928a64736f6c63430008140033",
  "linkReferences": {},
  "deployedLinkReferences": {}
}