{
  "_format": "hh-sol-artifact-1",
  "contractName": "TestTarget",
  "sourceName": "contracts/Test.sol",
  "abi": [
    {
      "inputs": [
        {
          "internalType": "uint256",
          "name": "_x",
          "type": "uint256"
        }
      ],
      "name": "setX",
      "outputs": [],
      "stateMutability": "nonpayable",
      "type": "function"
    },
    {
      "inputs": [],
      "name": "x",
      "outputs": [
        {
          "internalType": "uint256",
          "name": "",
          "type": "uint256"
        }
      ],
      "stateMutability": "view",
      "type": "function"
    }
  ],
  "bytecode": "0x608060405234801561001057600080fd5b5060b18061001f6000396000f3fe6080604052348015600f57600080fd5b506004361060325760003560e01c80630c55699c1460375780634018d9aa146051575b600080fd5b603f60005481565b60405190815260200160405180910390f35b6061605c3660046063565b600055565b005b600060208284031215607457600080fd5b503591905056fea26469706673582212206282708060fcfdacf605d0da1b95dcf8d319e89741ccbf93167d7153dcc2982564736f6c63430008140033",
  "linkReferences": {},
  "deployedLinkReferences": {}
}